{
  "address": "0x5FbDB2315678afecb367f032d93F642f64180aa3",
  "abi": [
    {
      "inputs": [
        {
          "internalType": "address",
          "name": "_spaceCola",
          "type": "address"
        },
        {
          "internalType": "uint256",
          "name": "initialPrice",
          "type": "uint256"
        }
      ],
      "stateMutability": "nonpayable",
      "type": "constructor"
    },
    {
      "anonymous": false,
      "inputs": [
        {
          "indexed": false,
          "internalType": "address",
          "name": "payee",
          "type": "address"
        },
        {
          "indexed": false,
          "internalType": "uint8",
          "name": "amount",
          "type": "uint8"
        }
      ],
      "name": "BottleBought",
      "type": "event"
    },
    {
      "anonymous": false,
      "inputs": [
        {
          "indexed": false,
          "internalType": "address",
          "name": "payee",
          "type": "address"
        }
      ],
      "name": "BottleReturned",
      "type": "event"
    },
    {
      "anonymous": false,
      "inputs": [
        {
          "indexed": false,
          "internalType": "address",
          "name": "newOperator",
          "type": "address"
        }
      ],
      "name": "OperatorAdded",
      "type": "event"
    },
    {
      "anonymous": false,
      "inputs": [
        {
          "indexed": false,
          "internalType": "address",
          "name": "oldOperator",
          "type": "address"
        }
      ],
      "name": "OperatorRemoved",
      "type": "event"
    },
    {
      "anonymous": false,
      "inputs": [
        {
          "indexed": false,
          "internalType": "uint256",
          "name": "newPrice",
          "type": "uint256"
        }
      ],
      "name": "PriceChanged",
      "type": "event"
    },
    {
      "anonymous": false,
      "inputs": [
        {
          "indexed": false,
          "internalType": "address",
          "name": "dest",
          "type": "address"
        },
        {
          "indexed": false,
          "internalType": "uint256",
          "name": "amount",
          "type": "uint256"
        }
      ],
      "name": "ReadyToWithdraw",
      "type": "event"
    },
    {
      "anonymous": false,
      "inputs": [],
      "name": "Restocked",
      "type": "event"
    },
    {
      "inputs": [],
      "name": "BULK_ORDER_DISCOUNT",
      "outputs": [
        {
          "internalType": "uint8",
          "name": "",
          "type": "uint8"
        }
      ],
      "stateMutability": "view",
      "type": "function"
    },
    {
      "inputs": [],
      "name": "FIVE_BOTTLES",
      "outputs": [
        {
          "internalType": "uint8",
          "name": "",
          "type": "uint8"
        }
      ],
      "stateMutability": "view",
      "type": "function"
    },
    {
      "inputs": [],
      "name": "MAX_CAPACITY",
      "outputs": [
        {
          "internalType": "uint8",
          "name": "",
          "type": "uint8"
        }
      ],
      "stateMutability": "view",
      "type": "function"
    },
    {
      "inputs": [],
      "name": "ONE_BOTTLE",
      "outputs": [
        {
          "internalType": "uint8",
          "name": "",
          "type": "uint8"
        }
      ],
      "stateMutability": "view",
      "type": "function"
    },
    {
      "inputs": [],
      "name": "PERCENT_BASE",
      "outputs": [
        {
          "internalType": "uint8",
          "name": "",
          "type": "uint8"
        }
      ],
      "stateMutability": "view",
      "type": "function"
    },
    {
      "inputs": [],
      "name": "RETURN_BOTTLE_DISCOUNT",
      "outputs": [
        {
          "internalType": "uint8",
          "name": "",
          "type": "uint8"
        }
      ],
      "stateMutability": "view",
      "type": "function"
    },
    {
      "inputs": [
        {
          "internalType": "address",
          "name": "newOperator",
          "type": "address"
        }
      ],
      "name": "addOperator",
      "outputs": [],
      "stateMutability": "nonpayable",
      "type": "function"
    },
    {
      "inputs": [
        {
          "internalType": "address",
          "name": "",
          "type": "address"
        }
      ],
      "name": "addressToBottlesBought",
      "outputs": [
        {
          "internalType": "uint256",
          "name": "",
          "type": "uint256"
        }
      ],
      "stateMutability": "view",
      "type": "function"
    },
    {
      "inputs": [
        {
          "internalType": "address",
          "name": "",
          "type": "address"
        }
      ],
      "name": "addressToBottlesReturned",
      "outputs": [
        {
          "internalType": "uint256",
          "name": "",
          "type": "uint256"
        }
      ],
      "stateMutability": "view",
      "type": "function"
    },
    {
      "inputs": [],
      "name": "buy5Bottles",
      "outputs": [],
      "stateMutability": "payable",
      "type": "function"
    },
    {
      "inputs": [],
      "name": "buyBottle",
      "outputs": [],
      "stateMutability": "payable",
      "type": "function"
    },
    {
      "inputs": [],
      "name": "getOperatorsCount",
      "outputs": [
        {
          "internalType": "uint256",
          "name": "",
          "type": "uint256"
        }
      ],
      "stateMutability": "view",
      "type": "function"
    },
    {
      "inputs": [],
      "name": "getTotalSold",
      "outputs": [
        {
          "internalType": "uint256",
          "name": "",
          "type": "uint256"
        }
      ],
      "stateMutability": "view",
      "type": "function"
    },
    {
      "inputs": [
        {
          "internalType": "address",
          "name": "dest",
          "type": "address"
        }
      ],
      "name": "payments",
      "outputs": [
        {
          "internalType": "uint256",
          "name": "",
          "type": "uint256"
        }
      ],
      "stateMutability": "view",
      "type": "function"
    },
    {
      "inputs": [],
      "name": "prepareWithdrawal",
      "outputs": [],
      "stateMutability": "nonpayable",
      "type": "function"
    },
    {
      "inputs": [],
      "name": "price",
      "outputs": [
        {
          "internalType": "uint256",
          "name": "",
          "type": "uint256"
        }
      ],
      "stateMutability": "view",
      "type": "function"
    },
    {
      "inputs": [
        {
          "internalType": "address",
          "name": "oldOperator",
          "type": "address"
        }
      ],
      "name": "removeOperator",
      "outputs": [],
      "stateMutability": "nonpayable",
      "type": "function"
    },
    {
      "inputs": [
        {
          "internalType": "uint8",
          "name": "amount",
          "type": "uint8"
        }
      ],
      "name": "restock",
      "outputs": [],
      "stateMutability": "nonpayable",
      "type": "function"
    },
    {
      "inputs": [],
      "name": "returnBottle",
      "outputs": [],
      "stateMutability": "nonpayable",
      "type": "function"
    },
    {
      "inputs": [
        {
          "internalType": "uint256",
          "name": "newPrice",
          "type": "uint256"
        }
      ],
      "name": "setPrice",
      "outputs": [],
      "stateMutability": "nonpayable",
      "type": "function"
    },
    {
      "inputs": [],
      "name": "spaceCola",
      "outputs": [
        {
          "internalType": "address",
          "name": "",
          "type": "address"
        }
      ],
      "stateMutability": "view",
      "type": "function"
    },
    {
      "inputs": [
        {
          "internalType": "address payable",
          "name": "payee",
          "type": "address"
        }
      ],
      "name": "withdrawPayments",
      "outputs": [],
      "stateMutability": "nonpayable",
      "type": "function"
    }
  ],
  "transactionHash": "0x0dcdc43cda5d62ec88d77ed2e532f5e2cfb09bdd0647bedb99d5cde438bb50fb",
  "args": [
    "0xe7f1725E7734CE288F8367e1Bb143E90bb3F0512",
    "100000000000000000"
  ],
  "numDeployments": 1,
  "solcInputHash": "c3689edb4e516ef52930144967c2a00e",
  "bytecode": "0x60c06040523480156200001157600080fd5b5060405162001d0a38038062001d0a833981016040819052620000349162000207565b6200003f3362000095565b6040516200004d90620001f9565b604051809103906000f0801580156200006a573d6000803e3d6000fd5b506001600160601b0319606091821b8116608052600160025592901b90911660a05260055562000243565b600360ff16620000b16000620001ec60201b62000d871760201c565b10620001045760405162461bcd60e51b815260206004820152601f60248201527f4f706572617465643a206d6178206f70657261746f727320726561636865640060448201526064015b60405180910390fd5b6001600160a01b03811660009081526001602052604090205460ff16156200017a5760405162461bcd60e51b815260206004820152602260248201527f4f706572617465643a206164647265737320616c7265616479206f706572617460448201526137b960f11b6064820152608401620000fb565b620001916000620001f060201b62000d8b1760201c565b6001600160a01b038116600081815260016020818152604092839020805460ff191690921790915590519182527fac6fa858e9350a46cec16539926e0fde25b7629f84b5a72bffaae4df888ae86d910160405180910390a150565b5490565b80546001019055565b6105f2806200171883390190565b600080604083850312156200021b57600080fd5b82516001600160a01b03811681146200023357600080fd5b6020939093015192949293505050565b60805160601c60a05160601c611478620002a060003960008181610224015281816104a0015281816105eb015281816107c0015281816109650152610da001526000818161070f01528181610cf6015261101901526114786000f3fe6080604052600436106101355760003560e01c806380e64e8b116100ab578063a035b1fe1161006f578063a035b1fe14610312578063a3e04f4814610328578063ab8984711461033d578063ac8a584a1461036a578063e2982c211461038a578063e6bac65c146103aa57600080fd5b806380e64e8b146102885780639137c3661461029057806391b7f5ed146102bd5780639870d7fe146102dd5780639d7b8e68146102fd57600080fd5b80633a5ddf30116100fd5780633a5ddf30146101c55780633f7ca11b146101da57806361e6367d146101ef5780636c390ecf146102125780636d55e1051461025e578063805d835d1461027357600080fd5b80631662f1f61461013a57806316d689741461016657806317a239b2146101885780631fb30f401461019057806331b3eb94146101a5575b600080fd5b34801561014657600080fd5b5061014f600f81565b60405160ff90911681526020015b60405180910390f35b34801561017257600080fd5b5061018661018136600461122b565b6103bf565b005b610186610542565b34801561019c57600080fd5b5061014f600181565b3480156101b157600080fd5b506101866101c03660046111ba565b6106f0565b3480156101d157600080fd5b5061014f601481565b3480156101e657600080fd5b5061014f603281565b3480156101fb57600080fd5b5061020461076e565b60405190815260200161015d565b34801561021e57600080fd5b506102467f000000000000000000000000000000000000000000000000000000000000000081565b6040516001600160a01b03909116815260200161015d565b34801561026a57600080fd5b506101866107a9565b34801561027f57600080fd5b5061014f606481565b610186610880565b34801561029c57600080fd5b506102046102ab3660046111ba565b60046020526000908152604090205481565b3480156102c957600080fd5b506101866102d83660046111f9565b610a3e565b3480156102e957600080fd5b506101866102f83660046111ba565b610b34565b34801561030957600080fd5b50610204610b9a565b34801561031e57600080fd5b5061020460055481565b34801561033457600080fd5b50610186610bd0565b34801561034957600080fd5b506102046103583660046111ba565b60036020526000908152604090205481565b34801561037657600080fd5b506101866103853660046111ba565b610c72565b34801561039657600080fd5b506102046103a53660046111ba565b610cd4565b3480156103b657600080fd5b5061014f610d78565b3360009081526001602052604090205460ff166103f75760405162461bcd60e51b81526004016103ee9061126a565b60405180910390fd5b6002805414156104195760405162461bcd60e51b81526004016103ee906112e2565b6002805560ff8116610429610d94565b6104339190611360565b601410156104915760405162461bcd60e51b815260206004820152602560248201527f436f6c614d41646d696e3a3a20726573746f636b20616d6f756e742061626f766044820152640ca40dac2f60db1b60648201526084016103ee565b6040516340c10f1960e01b81527f00000000000000000000000000000000000000000000000000000000000000006001600160a01b0316906340c10f19906104df903090859060040161124e565b600060405180830381600087803b1580156104f957600080fd5b505af115801561050d573d6000803e3d6000fd5b50506040517fd51b555dab4048d90ddc59d3062869ebf6be58955330cf60e4273a06f49de76c925060009150a1506001600255565b6002805414156105645760405162461bcd60e51b81526004016103ee906112e2565b60028055600580610573610d94565b10156105bb5760405162461bcd60e51b8152602060048201526017602482015276436f6c614d3a206e6f7420656e6f7567682073746f636b60481b60448201526064016103ee565b6105c3610e3d565b34146105e15760405162461bcd60e51b81526004016103ee9061129f565b6001600160a01b037f00000000000000000000000000000000000000000000000000000000000000001663a9059cbb3361061d600160056113b9565b6040518363ffffffff1660e01b815260040161063a92919061124e565b602060405180830381600087803b15801561065457600080fd5b505af1158015610668573d6000803e3d6000fd5b505050506040513d601f19601f8201168201806040525081019061068c91906111d7565b506106a461069c600160056113b9565b60ff16610e70565b7f390275ba38ba248c18138118e6e0e08f978d213a3a9ce73edfff78691966ed27336106d2600160056113b9565b6040516106e092919061124e565b60405180910390a1506001600255565b6040516351cff8d960e01b81526001600160a01b0382811660048301527f000000000000000000000000000000000000000000000000000000000000000016906351cff8d990602401600060405180830381600087803b15801561075357600080fd5b505af1158015610767573d6000803e3d6000fd5b5050505050565b3360009081526001602052604081205460ff1661079d5760405162461bcd60e51b81526004016103ee9061126a565b5060005490565b905090565b60405163079cc67960e41b81526001600160a01b037f000000000000000000000000000000000000000000000000000000000000000016906379cc6790906107f890339060019060040161124e565b600060405180830381600087803b15801561081257600080fd5b505af1158015610826573d6000803e3d6000fd5b5050336000908152600460205260408120805493509150610846836113f9565b90915550506040513381527f1923c34931cfebe211e14ab3dd4557c069c74ec0cb084673144227ee4b5a27c79060200160405180910390a1565b6002805414156108a25760405162461bcd60e51b81526004016103ee906112e2565b600280556001806108b1610d94565b10156108f95760405162461bcd60e51b8152602060048201526017602482015276436f6c614d3a206e6f7420656e6f7567682073746f636b60481b60448201526064016103ee565b600080610904610e8a565b915091508134146109275760405162461bcd60e51b81526004016103ee9061129f565b801561094e57336000908152600460205260408120805491610948836113e2565b91905055505b60405163a9059cbb60e01b81526001600160a01b037f0000000000000000000000000000000000000000000000000000000000000000169063a9059cbb9061099d90339060019060040161124e565b602060405180830381600087803b1580156109b757600080fd5b505af11580156109cb573d6000803e3d6000fd5b505050506040513d601f19601f820116820180604052508101906109ef91906111d7565b506109fa6001610e70565b7f390275ba38ba248c18138118e6e0e08f978d213a3a9ce73edfff78691966ed27336001604051610a2c92919061124e565b60405180910390a15050600160025550565b3360009081526001602052604090205460ff16610a6d5760405162461bcd60e51b81526004016103ee9061126a565b600280541415610a8f5760405162461bcd60e51b81526004016103ee906112e2565b60028055610a9b610d94565b15610aff5760405162461bcd60e51b815260206004820152602e60248201527f436f6c614d41646d696e3a3a2073657474696e67207072696365207768656e2060448201526d073746f636b206973206e6f7420360941b60648201526084016103ee565b60058190556040518181527fa6dc15bdb68da224c66db4b3838d9a2b205138e8cff6774e57d0af91e196d622906020016106e0565b3360009081526001602052604090205460ff16610b635760405162461bcd60e51b81526004016103ee9061126a565b80336001600160a01b0382161415610b8d5760405162461bcd60e51b81526004016103ee90611319565b610b9682610ec4565b5050565b3360009081526001602052604081205460ff16610bc95760405162461bcd60e51b81526004016103ee9061126a565b5060065490565b3360009081526001602052604090205460ff16610bff5760405162461bcd60e51b81526004016103ee9061126a565b600280541415610c215760405162461bcd60e51b81526004016103ee906112e2565b60028055610c30333031610ffa565b604080513381523031602082015281517f303270704840e2389e7fc05de22152b1774e6d45de4361a1079aab50fff25839929181900390910190a16001600255565b3360009081526001602052604090205460ff16610ca15760405162461bcd60e51b81526004016103ee9061126a565b80336001600160a01b0382161415610ccb5760405162461bcd60e51b81526004016103ee90611319565b610b968261107b565b6040516371d4ed8d60e11b81526001600160a01b0382811660048301526000917f00000000000000000000000000000000000000000000000000000000000000009091169063e3a9db1a9060240160206040518083038186803b158015610d3a57600080fd5b505afa158015610d4e573d6000803e3d6000fd5b505050506040513d601f19601f82011682018060405250810190610d729190611212565b92915050565b610d84600160056113b9565b81565b5490565b80546001019055565b60006001600160a01b037f0000000000000000000000000000000000000000000000000000000000000000166370a08231306040516001600160e01b031960e084901b1681526001600160a01b03909116600482015260240160206040518083038186803b158015610e0557600080fd5b505afa158015610e19573d6000803e3d6000fd5b505050506040513d601f19601f820116820180604052508101906107a49190611212565b60006107a4600f610e6a6064610e64610e58600160056113b9565b6005549060ff16611144565b90611157565b90611144565b8060066000828254610e829190611360565b909155505050565b33600090815260046020526040812054151580610ea957600554610ebe565b600554610ebe90603290610e6a906064611157565b91509091565b6003610ecf60005490565b10610f1c5760405162461bcd60e51b815260206004820152601f60248201527f4f706572617465643a206d6178206f70657261746f727320726561636865640060448201526064016103ee565b6001600160a01b03811660009081526001602052604090205460ff1615610f905760405162461bcd60e51b815260206004820152602260248201527f4f706572617465643a206164647265737320616c7265616479206f706572617460448201526137b960f11b60648201526084016103ee565b610f9e600080546001019055565b6001600160a01b038116600081815260016020818152604092839020805460ff191690921790915590519182527fac6fa858e9350a46cec16539926e0fde25b7629f84b5a72bffaae4df888ae86d91015b60405180910390a150565b60405163f340fa0160e01b81526001600160a01b0383811660048301527f0000000000000000000000000000000000000000000000000000000000000000169063f340fa019083906024016000604051808303818588803b15801561105e57600080fd5b505af1158015611072573d6000803e3d6000fd5b50505050505050565b6001600160a01b03811660009081526001602081905260409091205460ff161515146110e95760405162461bcd60e51b815260206004820152601e60248201527f4f706572617465643a2061646472657373206e6f74206f70657261746f72000060448201526064016103ee565b6110f36000611163565b6001600160a01b038116600081815260016020908152604091829020805460ff1916905590519182527f80c0b871b97b595b16a7741c1b06fed0c6f6f558639f18ccbce50724325dc40d9101610fef565b6000611150828461139a565b9392505050565b60006111508284611378565b8054806111b25760405162461bcd60e51b815260206004820152601b60248201527f436f756e7465723a2064656372656d656e74206f766572666c6f77000000000060448201526064016103ee565b600019019055565b6000602082840312156111cc57600080fd5b81356111508161142a565b6000602082840312156111e957600080fd5b8151801515811461115057600080fd5b60006020828403121561120b57600080fd5b5035919050565b60006020828403121561122457600080fd5b5051919050565b60006020828403121561123d57600080fd5b813560ff8116811461115057600080fd5b6001600160a01b0392909216825260ff16602082015260400190565b6020808252818101527f4f706572617465643a2063616c6c6572206973206e6f74206f70657261746f72604082015260600190565b60208082526023908201527f436f6c614d3a2065746820646f6573206e6f74206d617463682074686520707260408201526269636560e81b606082015260800190565b6020808252601f908201527f5265656e7472616e637947756172643a207265656e7472616e742063616c6c00604082015260600190565b60208082526027908201527f4f706572617465643a206e657720616464726573732063616e206e6f742062656040820152661039b2b73232b960c91b606082015260800190565b6000821982111561137357611373611414565b500190565b60008261139557634e487b7160e01b600052601260045260246000fd5b500490565b60008160001904831182151516156113b4576113b4611414565b500290565b600060ff821660ff84168160ff04811182151516156113da576113da611414565b029392505050565b6000816113f1576113f1611414565b506000190190565b600060001982141561140d5761140d611414565b5060010190565b634e487b7160e01b600052601160045260246000fd5b6001600160a01b038116811461143f57600080fd5b5056fea264697066735822122097bd988e5e5df5173d6c44bb431c364975f7c2a0e839a3836c289fbf85b13db964736f6c63430008070033608060405234801561001057600080fd5b5061001a3361001f565b61006f565b600080546001600160a01b038381166001600160a01b0319831681178455604051919092169283917f8be0079c531659141344cd1fd0a4f28419497f9722a3daafe3b4186f6b6457e09190a35050565b6105748061007e6000396000f3fe6080604052600436106100555760003560e01c806351cff8d91461005a578063715018a61461007c5780638da5cb5b14610091578063e3a9db1a146100be578063f2fde38b14610102578063f340fa0114610122575b600080fd5b34801561006657600080fd5b5061007a6100753660046104aa565b610135565b005b34801561008857600080fd5b5061007a6101d7565b34801561009d57600080fd5b506000546040516001600160a01b0390911681526020015b60405180910390f35b3480156100ca57600080fd5b506100f46100d93660046104aa565b6001600160a01b031660009081526001602052604090205490565b6040519081526020016100b5565b34801561010e57600080fd5b5061007a61011d3660046104aa565b61020d565b61007a6101303660046104aa565b6102a8565b6000546001600160a01b031633146101685760405162461bcd60e51b815260040161015f906104ce565b60405180910390fd5b6001600160a01b0381166000818152600160205260408120805491905590610190908261033c565b816001600160a01b03167f7084f5476618d8e60b11ef0d7d3f06914655adb8793e28ff7f018d4c76d505d5826040516101cb91815260200190565b60405180910390a25050565b6000546001600160a01b031633146102015760405162461bcd60e51b815260040161015f906104ce565b61020b600061045a565b565b6000546001600160a01b031633146102375760405162461bcd60e51b815260040161015f906104ce565b6001600160a01b03811661029c5760405162461bcd60e51b815260206004820152602660248201527f4f776e61626c653a206e6577206f776e657220697320746865207a65726f206160448201526564647265737360d01b606482015260840161015f565b6102a58161045a565b50565b6000546001600160a01b031633146102d25760405162461bcd60e51b815260040161015f906104ce565b6001600160a01b0381166000908152600160205260408120805434928392916102fc908490610503565b90915550506040518181526001600160a01b038316907f2da466a7b24304f47e87fa2e1e5a81b9831ce54fec19055ce277ca2f39ba42c4906020016101cb565b8047101561038c5760405162461bcd60e51b815260206004820152601d60248201527f416464726573733a20696e73756666696369656e742062616c616e6365000000604482015260640161015f565b6000826001600160a01b03168260405160006040518083038185875af1925050503d80600081146103d9576040519150601f19603f3d011682016040523d82523d6000602084013e6103de565b606091505b50509050806104555760405162461bcd60e51b815260206004820152603a60248201527f416464726573733a20756e61626c6520746f2073656e642076616c75652c207260448201527f6563697069656e74206d61792068617665207265766572746564000000000000606482015260840161015f565b505050565b600080546001600160a01b038381166001600160a01b0319831681178455604051919092169283917f8be0079c531659141344cd1fd0a4f28419497f9722a3daafe3b4186f6b6457e09190a35050565b6000602082840312156104bc57600080fd5b81356104c781610529565b9392505050565b6020808252818101527f4f776e61626c653a2063616c6c6572206973206e6f7420746865206f776e6572604082015260600190565b6000821982111561052457634e487b7160e01b600052601160045260246000fd5b500190565b6001600160a01b03811681146102a557600080fdfea26469706673582212204af8f7b4802712d75dba86f3c65d8d067253041994aa988c862395a93097202d64736f6c63430008070033",
  "devdoc": {
    "details": "Cola Machine is a contract that implements the {IColaMachine} interface.",
    "kind": "dev",
    "methods": {
      "addOperator(address)": {
        "details": "Add Operator adds new account to the list of operators. Can only be called by operator."
      },
      "buy5Bottles()": {
        "details": "See {IColaMachine-buy5Bottles}. Will do {BULK_ORDER_DISCOUNT} discount. Throws if sent ETH does not match exactly the price."
      },
      "buyBottle()": {
        "details": "See {IColaMachine-buyBottle}. Will do {RETURN_BOTTLE_DISCOUNT} when the buyer has returned bottles. Throws if sent ETH does not match exactly the price with or without discount."
      },
      "constructor": {
        "details": "Sets the values for space cola address and initial price of the {SpaceCola} token. See {SpaceCola-constructor}."
      },
      "getTotalSold()": {
        "details": "See {IColaMachine-getTotalSold}. Returns all bottles sold. Access is restricted to operators only."
      },
      "payments(address)": {
        "details": "Returns the payments owed to an address.",
        "params": {
          "dest": "The creditor's address."
        }
      },
      "prepareWithdrawal()": {
        "details": "See {IColaMachine-prepareWithdrawal}. Refer to {PullPayment} from openZeppelin's contracts. To finalize the withdrawal {withdrawPayments} should be called after the {prepareWithdrawal}. Access is restricted to operators only."
      },
      "removeOperator(address)": {
        "details": "Remove Operator removes existing operator account from the list of operators. Can only be called by operator."
      },
      "restock(uint8)": {
        "details": "See {IColaMachine-restock}. Access is restricted to operators only. Throws if the new capacity is greater then the allowed max capacity."
      },
      "returnBottle()": {
        "details": "See {IColaMachine-returnBottle}. Returned bottle tokens are burned."
      },
      "setPrice(uint256)": {
        "details": "See {IColaMachine-setPrice}. Access is restricted to operators only. Throws if the current stock is not 0."
      },
      "withdrawPayments(address)": {
        "details": "Withdraw accumulated payments, forwarding all gas to the recipient. Note that _any_ account can call this function, not just the `payee`. This means that contracts unaware of the `PullPayment` protocol can still receive funds this way, by having a separate account call {withdrawPayments}. WARNING: Forwarding all gas opens the door to reentrancy vulnerabilities. Make sure you trust the recipient, or are either following the checks-effects-interactions pattern or using {ReentrancyGuard}.",
        "params": {
          "payee": "Whose payments will be withdrawn."
        }
      }
    },
    "version": 1
  },
  "userdoc": {
    "kind": "user",
    "methods": {},
    "version": 1
  },
  "storageLayout": {
    "storage": [
      {
        "astId": 2207,
        "contract": "contracts/ColaMachine.sol:ColaMachine",
        "label": "_operatorsCount",
        "offset": 0,
        "slot": "0",
        "type": "t_struct(Counter)1263_storage"
      },
      {
        "astId": 2214,
        "contract": "contracts/ColaMachine.sol:ColaMachine",
        "label": "_addressToOperator",
        "offset": 0,
        "slot": "1",
        "type": "t_mapping(t_address,t_bool)"
      },
      {
        "astId": 178,
        "contract": "contracts/ColaMachine.sol:ColaMachine",
        "label": "_status",
        "offset": 0,
        "slot": "2",
        "type": "t_uint256"
      },
      {
        "astId": 1785,
        "contract": "contracts/ColaMachine.sol:ColaMachine",
        "label": "addressToBottlesBought",
        "offset": 0,
        "slot": "3",
        "type": "t_mapping(t_address,t_uint256)"
      },
      {
        "astId": 1789,
        "contract": "contracts/ColaMachine.sol:ColaMachine",
        "label": "addressToBottlesReturned",
        "offset": 0,
        "slot": "4",
        "type": "t_mapping(t_address,t_uint256)"
      },
      {
        "astId": 1791,
        "contract": "contracts/ColaMachine.sol:ColaMachine",
        "label": "price",
        "offset": 0,
        "slot": "5",
        "type": "t_uint256"
      },
      {
        "astId": 1793,
        "contract": "contracts/ColaMachine.sol:ColaMachine",
        "label": "_totalSold",
        "offset": 0,
        "slot": "6",
        "type": "t_uint256"
      }
    ],
    "types": {
      "t_address": {
        "encoding": "inplace",
        "label": "address",
        "numberOfBytes": "20"
      },
      "t_bool": {
        "encoding": "inplace",
        "label": "bool",
        "numberOfBytes": "1"
      },
      "t_mapping(t_address,t_bool)": {
        "encoding": "mapping",
        "key": "t_address",
        "label": "mapping(address => bool)",
        "numberOfBytes": "32",
        "value": "t_bool"
      },
      "t_mapping(t_address,t_uint256)": {
        "encoding": "mapping",
        "key": "t_address",
        "label": "mapping(address => uint256)",
        "numberOfBytes": "32",
        "value": "t_uint256"
      },
      "t_struct(Counter)1263_storage": {
        "encoding": "inplace",
        "label": "struct Counters.Counter",
        "members": [
          {
            "astId": 1262,
            "contract": "contracts/ColaMachine.sol:ColaMachine",
            "label": "_value",
            "offset": 0,
            "slot": "0",
            "type": "t_uint256"
          }
        ],
        "numberOfBytes": "32"
      },
      "t_uint256": {
        "encoding": "inplace",
        "label": "uint256",
        "numberOfBytes": "32"
      }
    }
  }
}